:020000040800F2
:10000000480A0020CD0900082D0A00082D0A000822
:100010002D0A00082D0A00082D0A00080000000023
:100020000000000000000000000000002D0A000891
:100030002D0A0008000000002D0A00082D0A000803
:100040002D0A00082D0A00082D0A00082D0A0008B4
:100050002D0A00082D0A0008252600083926000868
:100060004D260008612600082D0A00082D0A000808
:100070002D0A00082D0A00082D0A00082D0A000884
:100080002D0A00082D0A00082D0A00082D0A000874
:100090002D0A00082D0A00082D0A0008511000083A
:1000A0002D0A00082D0A00082D0A00082D0A000854
:1000B00029180008AD1800082D0A00082D0A0008AC
:1000C0002D0A00082D0A00082D0A00082D0A000834
:1000D0002D0A00082D0A00082D0A000871230008C7
:1000E0002D0A00082D0A00082D0A00080000000053
:1000F0000000000000000000000000000000000000
:1001000000000000000000005FF808F180B485B036
:1001100000AF786039600023FB817B681B88FB811E
:100120007B682E4A934213D07B682D4A93420FD0AE
:100130007B68B3F1804F0BD07B682A4A934207D08B
:100140007B68294A934203D07B68284A934208D1AE
:10015000FB8923F07003FB813B685A88FB891343BA
:10016000FB817B68224A93420CD07B68214A9342F0
:1001700008D0FB8923F44073FB813B68DA88FB8954
:100180001343FB817B68FA891A803B689A887B68F5
:100190009A853B681A887B681A857B680F4A934268
:1001A0000FD07B680E4A93420BD07B68124A934271
:1001B00007D07B68114A934203D07B68104A934270
:1001C00004D13B681B7A9AB27B681A867B6801224D
:1001D0009A8200BF1437BD4680BC7047002C014096
:1001E000003401400004004000080040000C0040C2
:1001F0000010004000140040004001400044014055
:100200000048014080B485B000AF786039600023B9
:100210007B810023FB810023BB817B681B8C9BB20D
:1002200023F001039AB27B681A847B681B8CFB81E4
:100230007B689B88BB817B681B8B7B817B8923F0E0
:1002400070037B817B8923F003037B813B681A88E1
:100250007B8913437B81FB8923F00203FB813B688D
:100260001A89FB891343FB813B685A88FB89134336
:10027000FB817B68244A93420FD07B68234A9342D8
:100280000BD07B68224A934207D07B68214A934275
:1002900003D07B68204A934223D1FB8923F00803D3
:1002A000FB813B685A89FB891343FB81FB8923F05F
:1002B0000403FB813B689A88FB891343FB81BB895C
:1002C00023F48073BB81BB8923F40073BB813B683B
:1002D0009A89BB891343BB813B68DA89BB89134385
:1002E000BB817B68BA899A807B687A891A833B686C
:1002F000DA887B689A867B68FA891A8400BF14378B
:10030000BD4680BC704700BF002C01400034014056
:1003100000400140004401400048014080B485B0E5
:1003200000AF7860396000237B810023FB810023CC
:10033000BB817B681B8C9BB223F010039AB27B6855
:100340001A847B681B8CFB817B689B88BB817B68E4
:100350001B8B7B817B8923F4E0437B817B8923F4A6
:1003600040737B813B681B881B029AB27B891343D5
:100370007B81FB8923F02003FB813B681B891B01E8
:100380009AB2FB891343FB813B685B881B019AB2DD
:10039000FB891343FB817B68224A934203D07B682D
:1003A000214A93422BD1FB8923F08003FB813B68D8
:1003B0005B891B019AB2FB891343FB81FB8923F004
:1003C0004003FB813B689B881B019AB2FB89134366
:1003D000FB81BB8923F48063BB81BB8923F4006369
:1003E000BB813B689B899B009AB2BB891343BB814D
:1003F0003B68DB899B009AB2BB891343BB817B6856
:10040000BA899A807B687A891A833B68DA887B6824
:100410001A877B68FA891A8400BF1437BD4680BCEE
:10042000704700BF002C01400034014080B485B00B
:1004300000AF7860396000237B810023FB810023BB
:10044000BB817B681B8C9BB223F480739AB27B6860
:100450001A847B681B8CFB817B689B88BB817B68D3
:100460009B8B7B817B8923F070037B817B8923F0CD
:1004700003037B813B681A887B8913437B81FB895B
:1004800023F40073FB813B681B891B029AB2FB8932
:100490001343FB813B685B881B029AB2FB891343C1
:1004A000FB817B68224A934203D07B68214A9342B6
:1004B0002BD1FB8923F40063FB813B685B891B0222
:1004C0009AB2FB891343FB81FB8923F48063FB8190
:1004D0003B689B881B029AB2FB891343FB81BB8953
:1004E00023F48053BB81BB8923F40053BB813B6859
:1004F0009B891B019AB2BB891343BB813B68DB8993
:100500001B019AB2BB891343BB817B68BA899A806D
:100510007B687A899A833B68DA887B689A877B68EC
:10052000FA891A8400BF1437BD4680BC704700BFEB
:10053000002C01400034014080B483B000AF7860EB
:1005400039603B681A883B685B8813439AB23B6802
:100550009B8813439AB23B68DB8813439AB23B688B
:100560001B8913439AB23B685B8913439AB23B6879
:100570009B8913439AB27B68A3F8442000BF0C37D1
:10058000BD4680BC704700BF80B483B000AF7860C8
:100590000B46FB70FB78002B08D07B681B889BB256
:1005A00043F001039AB27B681A8007E07B681B88DE
:1005B0009BB223F001039AB27B681A8000BF0C370C
:1005C000BD4680BC704700BF80B483B000AF786088
:1005D0000B46FB70FB78002B0CD07B68B3F84430E3
:1005E0009BB26FEA43436FEA53439AB27B68A3F826
:1005F000442009E07B68B3F844309BB2C3F30E0398
:100600009AB27B68A3F8442000BF0C37BD4680BC7B
:10061000704700BF80B483B000AF78600B467B802A
:1006200013467B707B78002B08D07B689B899AB23D
:100630007B8813439AB27B689A8109E07B689B8927
:100640009AB27B88DB439BB213409AB27B689A8153
:1006500000BF0C37BD4680BC704700BF80B485B07A
:1006600000AF78600B467B8013463B800023FB8104
:100670007B88012202FA03F3FB817B681B8C9AB210
:10068000FB89DB439BB213409AB27B681A847B6878
:100690001B8C9BB299B23A887B8802FA03F39BB217
:1006A0000A4613439BB29AB27B681A8400BF143780
:1006B000BD4680BC704700BF80B485B000AF786095
:1006C0000B467B8013463B800023FB817B88042202
:1006D00002FA03F3FB817B681B8C9AB2FB89DB4334
:1006E0009BB213409AB27B681A847B681B8C9BB2C6
:1006F00099B23A887B8802FA03F39BB20A46134305
:100700009BB29AB27B681A8400BF1437BD4680BC86
:10071000704700BF80B485B000AF78600B467B8027
:1007200013463B800023FB6000237B817B68FB60DA
:10073000FB681833FB607B88012202FA03F37B819C
:100740007B681B8C9AB27B89DB439BB213409AB2C5
:100750007B681A847B88002B02D07B88082B13D1FE
:100760007B885B089BB21A46FB681344FB60FB68FE
:10077000FA68126822F070021A60FB68FA68116861
:100780003A880A431A6016E07B88043B9BB25B08F8
:100790009BB21A46FB681344FB60FB68FA68126858
:1007A00022F4E0421A60FB68FA681268398809028C
:1007B00089B20A431A6000BF1437BD4680BC704737
:1007C00080B483B000AF78600B467B807B687A880A
:1007D0009A8400BF0C37BD4680BC704780B483B09C
:1007E00000AF78607B689B8C9BB218460C37BD4687
:1007F00080BC704780B483B000AF78600B467B80CC
:100800007B88DB439AB27B681A8200BF0C37BD46F7
:1008100080BC704780B582B000AF0121102000F08D
:10082000D1FC0121042000F0CDFC0121082000F0C2
:10083000C9FC1023FB714FF47873BB800323BB7199
:100840003B1D1946034800F0F5F800BF0837BD46C8
:1008500080BD00BF000C014080B500AF154A154BAC
:100860001B6843F0010313601249124B5A68124B84
:1008700013404B600F4A0F4B1B6823F0847323F423
:10088000803313600B4A0B4B1B6823F480231360E7
:10089000084A084B5B6823F4FE035360054B4FF492
:1008A0001F029A6000F00CF8044B4FF000629A604F
:1008B00000BF80BD001002400000FFF800ED00E026
:1008C00080B500AF00F002F800BF80BD80B483B0F7
:1008D00000AF00237B6000233B603A4A394B1B6822
:1008E00043F480331360374B1B6803F400333B60E1
:1008F0007B6801337B603B68002B03D17B68B3F5D9
:10090000A06FF0D12F4B1B6803F40033002B02D0F3
:1009100001233B6001E000233B603B68012B4BD18E
:10092000294A294B1B6843F010031360264A264BC3
:100930001B6823F003031360234A234B1B6843F017
:10094000020313601F4A1F4B5B6853601D4A1D4B17
:100950005B6853601B4A1B4B5B6843F480635360C6
:10096000184A184B5B6823F47C135360154A154BE7
:100970005B6843F4E8135360124A124B1B6843F060
:100980008073136000BF0F4B1B6803F00073002BD4
:10099000F9D00C4A0B4B5B6823F003035360094A00
:1009A000084B5B6843F00203536000BF054B5B6874
:1009B00003F00C03082BF9D100BF0C37BD4680BCF7
:1009C000704700BF001002400020024080B582B096
:1009D00000AF114B7B60114B3B6007E03B681A1D79
:1009E0003A607A68111D796012681A603B680C4A97
:1009F0009342F3D30B480C494FF000028842B8BF32
:100A000040F8042BFADBFFF727FF00F0DBFA00BF0A
:100A10000837BD4680BD00BFA02C000800000020A4
:100A200028000020280000204406002080B400AFE9
:100A3000FEE700BF80B489B000AF78603960002362
:100A4000FB6100233B610023BB610023FB600023AB
:100A50007B610023BB603B68DB7803F00F03FB6125
:100A60003B68DB7803F01003002B05D03B689B78D4
:100A70001A46FB691343FB613B681B88DBB2002B02
:100A800044D07B681B687B610023BB6138E0012296
:100A9000BB6902FA03F3FB603B681B881A46FB68DC
:100AA00013403B613A69FB689A4226D1BB699B00BF
:100AB000FB600F22FB6802FA03F3BB60BB68DB43F9
:100AC0007A6913407B61FA69FB6802FA03F37A6979
:100AD00013437B613B68DB78282B05D10122BB697E
:100AE0009A407B685A6108E03B68DB78482B04D168
:100AF0000122BB699A407B681A61BB690133BB6103
:100B0000BB69072BC3D97B687A691A603B681B886D
:100B1000FF2B46D97B685B687B610023BB613AE0B1
:100B2000BB690833012202FA03F3FB603B681B88B0
:100B30001A46FB6813403B613A69FB689A4227D129
:100B4000BB699B00FB600F22FB6802FA03F3BB60EA
:100B5000BB68DB437A6913407B61FA69FB6802FA80
:100B600003F37A6913437B613B68DB78282B05D15B
:100B7000BB69083301229A407B685A613B68DB7885
:100B8000482B05D1BB69083301229A407B681A6162
:100B9000BB690133BB61BB69072BC1D97B687A692B
:100BA0005A6000BF2437BD4680BC704780B483B014
:100BB00000AF78607B689B689BB218460C37BD46D7
:100BC00080BC704780B483B000AF78600B467B80F8
:100BD00013467B707B78002B03D07A887B681A6180
:100BE00002E07A887B685A6100BF0C37BD4680BC42
:100BF000704700BF90B484B000AF03460A46FB7153
:100C00001346BB710023FB60BB7903F003039B0019
:100C10000F2202FA03F3FB601649BB799B08DBB293
:100C20001846144ABB799B08DBB2023352F82320E2
:100C3000FB68DB431A40831C41F823200D48BB7935
:100C40009B08DBB21C460B4ABB799B08DBB2023324
:100C500052F82320F979BB7903F003039B0001FAD2
:100C600003F31A43A31C40F8232000BF1037BD46EE
:100C700090BC70470000014080B400AF00BFBD468B
:100C800080BC704780B500AF01F088FF7E4B1B78B9
:100C9000002B02D17C4B01221A7001F05DFE03464D
:100CA000002B03D1642001F07FFDD2E0774B1B784D
:100CB000192B0AD1764B20221A70734B1A78744B79
:100CC0005A700221724801F05FFE704B1B78262B90
:100CD00003D16F4B5A786F4B1A706C4B1B78222BD9
:100CE00006D1022001F034FA694B5A786A4B1A7027
:100CF000654B1B78013B072B00F29E8001A252F846
:100D000023F000BF250D0008290E00087B0D000808
:100D1000EF0D0008910D0008A10D0008390E000824
:100D2000CF0D0008594B1B78123B032B23D801A28F
:100D300052F823F0450D0008530D0008610D00081E
:100D40006F0D0008032001F003FA4F4B02221A70C6
:100D500012E0002001F0FCF94B4B03221A700BE06B
:100D6000012001F0F5F9484B05221A7004E0464BCA
:100D700004221A7000E000BF6BE0444B1B78162B76
:100D80005CD1464800F0C2FD3F4B05221A7055E089
:100D90003E4B1B78172B53D13B4B06221A704FE06A
:100DA0003A4B1B78252B4DD13D4B00221A80374BF7
:100DB0005B78184601F010F902223A493A4801F0EE
:100DC000F9FE394B1B88184601F0DEF83AE02F4B4C
:100DD0001B78172B03D02D4B1B78252B34D1304B90
:100DE00000221A80314B1A78274B1A702CE0274BBF
:100DF0001B78242B2AD1254B5B78184601F0ECF8A0
:100E000002222849284801F0D5FE274B1B881846A6
:100E100001F0BAF802222649234801F0CBFE224B0A
:100E20001A88244B1A8011E0184B1B78212B0FD104
:100E3000164801F0A7F90BE000BF0AE000BF08E088
:100E400000BF06E000BF04E000BF02E000BF00E01A
:100E500000BF0D4B1B78042B00D012E0164B1A88F4
:100E6000144B1B889A4206D2134B1B8801339AB24B
:100E7000114B1A8004E001F0FBF80F4B00221A809E
:100E800000BF00BF80BD00BF2C0000206801002013
:100E9000A00200202D0000202E000020690100206B
:100EA000280000206A010020980200209202002001
:100EB0006C010020900200202A00002080B500AFC5
:100EC0000E4B1B78062B00D016E00D4B1B88B3F59C
:100ED000FA7F06D20A4B1B8801339AB2084B1A805C
:100EE00009E0002001F050F8044B1A78054B1A7005
:100EF000024B08221A7000BF00BF80BD2C000020EA
:100F0000280000209202002080B400AF00BFBD4640
:100F100080BC704780B400AF00BFBD4680BC704746
:100F200080B500AF1E4B1B78002B22D01D4B1B68D9
:100F30001D4A13601B4B00221A601B4B1B681B4A87
:100F4000A2FB03239B08184A1360174B1B689AB235
:100F5000174B1A80174B27221A70154B1A78154B0E
:100F60005A70134B5A78134B9A700321114801F0B1
:100F70000BFD114B1B78042B00D00EE00F4B1B78A0
:100F8000002B09D00B4B23221A700D4801F08CF86E
:100F90000721084801F0F8FC00BF00BF80BD00BF7A
:100FA0002D00002050000020A0030020ABAAAAAA18
:100FB00098020020A00200202C0000202E0000201B
:100FC000A102002080B500AFFFF746FCFFF722FC2E
:100FD00000F03CFC00F0F6FB01F070F901F0CEFBF4
:100FE00000F068FB00F00AF800F06CFCFFF744FE2C
:100FF00001F074FAFFF746FEFCE700BF80B582B04F
:1010000000AF0121052000F0DDF8E023BB8048237C
:10101000FB713B1D19460D48FFF70CFD0721002011
:10102000FFF7E8FD4FF4407001F0E4F917233B703F
:101030000123FB7000237B700023BB703B461846E6
:1010400001F0EAF900BF0837BD4680BD0008014045
:1010500080B500AFE02000F063F900F0D3FC00BFE2
:1010600080BD00BF80B487B000AF786000237B6193
:1010700000233B610023FB600023BB604C4B5B689B
:1010800003F00C037B617B69042B07D0082B09D08C
:10109000002B33D17B68474A1A6033E07B68454AAE
:1010A0001A602FE0424B5B6803F470133B61404BC6
:1010B0005B6803F48033FB603B699B0C02333B614C
:1010C000FB68002B06D13B693B4A02FB03F27B68BD
:1010D0001A6017E0364B5B6803F40033002B06D030
:1010E0003B69354A02FB03F27B681A600AE03B6900
:1010F000304A02FB03F27B681A6003E07B682D4AEA
:101100001A6000BF2A4B5B6803F0F0037B617B69C8
:101110001B097B61294A7B6913441B78DBB2BB60E6
:101120007B681A68BB68DA407B685A60204B5B6852
:1011300003F4E0637B617B691B0A7B611F4A7B6967
:1011400013441B78DBB2BB607B685A68BB68DA402B
:101150007B689A60164B5B6803F460537B617B6924
:10116000DB0A7B61154A7B6913441B78DBB2BB60E9
:101170007B685A68BB68DA407B68DA600C4B5B6856
:1011800003F440437B617B699B0B7B610C4A7B6969
:1011900013441B78DBB2BB607B68DA68BB68B2FBC8
:1011A000F3F27B681A6100BF1C37BD4680BC7047F4
:1011B0000010024000127A0000093D0000000020EB
:1011C0001000002080B483B000AF78600B46FB7045
:1011D000FB78002B06D00949084B9A697B681343BA
:1011E0008B6106E00549054B9A697B68DB43134038
:1011F0008B6100BF0C37BD4680BC704700100240B9
:1012000080B483B000AF78600B46FB70FB78002B96
:1012100006D00949084BDA697B681343CB6106E0C5
:101220000549054BDA697B68DB431340CB6100BF9E
:101230000C37BD4680BC70470010024080B485B0BA
:1012400000AF78600023FB60344BFB607B689B79C8
:10125000002B4FD03149314B1A687B681B68DB4348
:1012600013400B602D492D4B5A687B681B68DB438C
:1012700013404B607B681B791A46FB681344FB6084
:10128000FB68FA6811687A6812680A431A60234991
:10129000224B9A687B681B68DB4313408B601F49B5
:1012A0001E4BDA687B681B68DB431340CB607B68AE
:1012B0005B79102B0ED11949184B9A687B681B6813
:1012C00013438B601549154BDA687B681B68134321
:1012D000CB601DE0114BFB607B685B791A46FB68B5
:1012E0001344FB60FB68FA6811687A6812680A4365
:1012F0001A600DE07B681B791A46FB681344FB609B
:10130000FB68FA6811687A681268D2430A401A606A
:1013100000BF1437BD4680BC704700BF00040140C9
:1013200080B483B000AF7860034A7B68536100BF2C
:101330000C37BD4680BC70470004014080B58CB0BE
:1013400000AF786039600023FB620023BB6200239A
:101350007B6200233B620023FB617B68FB617B684F
:101360001B8A9BB2FB62FA6A4CF6FF731340FB6266
:101370003B68DB881A46FB6A1343FB62FB6A9AB23E
:101380007B681A827B689B899BB2FB62FA6A4EF685
:10139000F3131340FB623B689A883B681B89134335
:1013A0009AB23B685B8913439BB21A46FB6A1343AC
:1013B000FB62FB6A9AB27B689A817B689B8A9BB2CC
:1013C000FB62FA6A4FF6FF431340FB623B689B895E
:1013D0001A46FB6A1343FB62FB6A9AB27B689A82E5
:1013E00007F108031846FFF73DFEFB692F4A9342B9
:1013F00002D17B69BB6201E03B69BB627B689B8970
:101400009BB29BB21BB2002B0CDABA6A13469B004C
:1014100013449A001A443B681B685B00B2FBF3F369
:101420007B620BE0BA6A13469B0013449A001A448D
:101430003B681B689B00B2FBF3F37B627B6A1C4A30
:10144000A2FB03235B091B01FB62FB6A1B096422ED
:1014500002FB03F37A6AD31A3B627B689B899BB2D7
:101460009BB21BB2002B0CDA3B6ADB003233104A12
:10147000A2FB03235B0903F00703FA6A1343FB6231
:101480000BE03B6A1B013233094AA2FB03235B09D1
:1014900003F00F03FA6A1343FB62FB6A9AB27B689C
:1014A0001A8100BF3037BD4680BD00BF0038014003
:1014B0001F85EB5180B483B000AF78600B46FB70A2
:1014C000FB78002B08D07B689B899BB243F40053C8
:1014D0009AB27B689A8107E07B689B899BB223F470
:1014E00000539AB27B689A8100BF0C37BD4680BC1E
:1014F000704700BF80B487B000AF78600B467B8038
:1015000013467B7000233B610023FB600023BB601C
:1015100000237B617B687B617B88DBB25B09DBB28C
:101520003B617B8803F01F03FB600122FB6802FA2A
:1015300003F3BB603B69012B03D17B690C337B61F7
:1015400009E03B69022B03D17B6910337B6102E028
:101550007B6914337B617B78002B06D07B697A69C9
:101560001168BA680A431A6006E07B697A691168F3
:10157000BA68D2430A401A6000BF1C37BD4680BC1F
:10158000704700BF80B483B000AF78600B467B80AB
:101590007B88C3F308039AB27B689A8000BF0C373C
:1015A000BD4680BC704700BF80B483B000AF786098
:1015B0007B689B889BB2C3F308039BB218460C3729
:1015C000BD4680BC704700BF80B487B000AF786074
:1015D0000B467B800023FB6000237B610023BB6004
:1015E0000023FB747B88DBB25B09DBB2BB607B88CA
:1015F00003F01F037B6101227B6902FA03F37B6125
:10160000BB68012B07D17B689B899BB21A467B691B
:1016100013407B6111E0BB68022B07D17B681B8AFA
:101620009BB21A467B6913407B6106E07B689B8A0C
:101630009BB21A467B6913407B617B881B0A9BB275
:10164000FB600122FB6802FA03F3FB607B681B88E6
:101650009BB21A46FB681340FB607B69002B05D0E8
:10166000FB68002B02D00123FB7401E00023FB7414
:10167000FB7C18461C37BD4680BC704780B485B0E3
:1016800000AF78600B467B800023FB810023BB8189
:101690007B881B0AFB81FB89012202FA03F3BB81D1
:1016A000BB89DB439AB27B681A8000BF1437BD4602
:1016B00080BC704780B58CB000AF01210C20FFF7D3
:1016C00081FD01214FF40060FFF77CFD182387F8AE
:1016D0002F304FF4E063BB85032387F82E3007F1EA
:1016E0002C0319463448FFF7A5F9182387F82F3043
:1016F0004FF46043BB85032387F82E3007F12C039A
:1017000019462E48FFF796F900233B8400237B847B
:101710004FF47A63BB840023FB84002387F82830CE
:1017200007F1200319462648FEF7F0FC00233B8210
:1017300001237B820423BB8200233B8300237B8322
:101740004FF48073BB834FF40073FB830023FB8251
:1017500007F1100319461A48FEF754FD07F110036C
:1017600019461748FEF7DAFD07F110031946144829
:10177000FEF75CFE4FF400633B804FF480637B8098
:101780000023BB804FF48043BB8100233B810023B7
:101790007B816423FB803B4619460948FEF7CCFE5B
:1017A00001210748FEF7F0FE01210548FEF70CFF76
:1017B00000BF3037BD4680BD00080140000C01402D
:1017C000002C014080B584B000AF01210120FFF75B
:1017D00017FD00237B810023FB804FF6FF733B81C5
:1017E0000A23BB803B1D19464FF08040FEF78EFC5C
:1017F000012201214FF08040FEF70CFF1C233B70BB
:101800000123FB7001237B700023BB703B4618460D
:1018100000F002FE01214FF08040FEF7B5FE00BF50
:101820001037BD4680BD00BF80B500AF01214FF02D
:101830008040FEF7DFFF044B1B6803F57F43FF3357
:10184000014A136000BF80BD5800002080B584B0FD
:1018500000AF01210220FFF7D3FC00237B8100238E
:10186000FB8040F28F133B81B323BB803B1D1946A5
:101870000D48FEF74BFC012201210B48FEF7CAFE82
:101880001D233B700123FB7002237B700223BB707E
:101890003B46184600F0C0FD01210348FEF774FEE8
:1018A00000BF1037BD4680BD0004004080B500AFCA
:1018B00001210348FEF79EFF00F0DCFE00BF80BD63
:1018C0000004004080B500AF002200210E48FEF762
:1018D000C5FE002204210C48FEF7C0FE00220821AC
:1018E0000948FEF7BBFE002200210748FEF7E4FE90
:1018F000002204210448FEF7DFFE002208210248EE
:10190000FEF7DAFE00BF80BD002C014080B582B03A
:1019100000AF78607B681A78354B5A707B685A78CC
:10192000334B9A707B689A78314BDA707B68DA783F
:101930002F4B1A717B681A792D4B5A717B685A7933
:101940002B4B9A712A4B9A79294B1A72284B5A7948
:10195000274B5A72264B1A79254B9A72244BDA7808
:10196000234BDA72224B9A78214B1A73204B5A7808
:101970001F4B5A731F4B1E4A116819609188927948
:1019800099809A711B4800F0AFFB1A4B9A79194B5A
:101990001A72184B5A79174B5A72164B1A79154B03
:1019A0009A72144BDA78134BDA72124B9A78114B05
:1019B0001A73104B5A780F4B5A7300F037FB0346DB
:1019C0001A460D4B1A700D4B1B7819460A4B1B78A3
:1019D0001846084A0B46DB005B1A134403441A7886
:1019E000074B1A7000F0A0F800BF0837BD4680BD55
:1019F000E8030020A4030020E603002030000020BC
:101A00002200002098B500AF394B1B78012B1CD069
:101A1000022B2ED0002B00D039E000F007FB03464C
:101A20001A46344B1A70344B1B781946314B1B78CD
:101A30001846324A0B46DB005B1A134403441A78FB
:101A40002F4B1A7000F070F821E02B4B1B781946D1
:101A50002B4B1B7818462B4A0B46DB005B1A1344B2
:101A600003441A78264B1A7000F05EF800F072F901
:101A70000DE0234B1B781A46234B1978234B9954BE
:101A800000F0D4FA03461A461F4B1A7000BF204BD1
:101A90001B6801331E4A13601E4B1B6801331D4A2D
:101AA00013601D4B1B6801331B4A1360144B1B78DA
:101AB0001C464FF08040FEF791FE03461A46174B36
:101AC0001B681344164A42F8243000214FF080402E
:101AD000FEF776FE114B00221A60094B1B781A465E
:101AE0000F4B53F822300F4A136000BF98BD00BF60
:101AF00031000020E603002030000020E803002031
:101B0000220000201400002032000020D00300201A
:101B1000500000208C0200206001002058000020AE
:101B20006C0200205400002080B500AF874B1B786A
:101B3000013B052B00F2068101A252F823F000BF01
:101B4000591B0008AB1B0008FD1B00084F1C0008B8
:101B5000A11C0008F31C0008002200217C48FEF7AD
:101B6000ABFD002208217A48FEF7A6FD00220421E1
:101B70007748FEF773FD002208217548FEF76EFDD9
:101B8000502204217248FEF7C5FD0422042170484A
:101B9000FEF792FD602200216D48FEF7BBFD012299
:101BA00000216B48FEF75AFDCDE000220021684875
:101BB000FEF782FD002208216548FEF77DFD002228
:101BC00000216348FEF74AFD002204216048FEF729
:101BD00045FD502204215E48FEF79CFD04220421AD
:101BE0005B48FEF769FD602208215948FEF792FD27
:101BF000012208215648FEF731FDA4E0002204210D
:101C00005348FEF759FD002208215148FEF754FDC4
:101C1000002200214E48FEF721FD002204214C48FD
:101C2000FEF71CFD502200214948FEF773FD0422F7
:101C300000214748FEF740FD602208214448FEF796
:101C400069FD012208214248FEF708FD7BE00022E1
:101C500004213F48FEF730FD002208213C48FEF7F2
:101C60002BFD002200213A48FEF7F8FC0022082153
:101C70003748FEF7F3FC502200213548FEF74AFDB5
:101C8000042200213248FEF717FD6022042130486B
:101C9000FEF740FD012204212D48FEF7DFFC52E053
:101CA000002200212A48FEF707FD002204212848CF
:101CB000FEF702FD002200212548FEF7CFFC00229E
:101CC00008212348FEF7CAFC502208212048FEF7CD
:101CD00021FD042208211E48FEF7EEFC60220421AB
:101CE0001B48FEF717FD012204211948FEF7B6FC38
:101CF00029E0002200211648FEF7DEFC0022042124
:101D00001348FEF7D9FC002204211148FEF7A6FC77
:101D1000002208210E48FEF7A1FC502208210C48A1
:101D2000FEF7F8FC042208210948FEF7C5FC6022F2
:101D300000210748FEF7EEFC012200210448FEF7CF
:101D40008DFC00E000BF00BF80BD00BF220000206E
:101D5000002C014080B500AF304B1B78002B2BD1FD
:101D60002F4B1B78013B052B52D801A252F823F0D0
:101D7000891D0008911D0008991D0008A11D00087B
:101D8000A91D0008B11D0008052000F04BF842E035
:101D9000002000F047F83EE0042000F043F83AE06D
:101DA000022000F03FF836E0032000F03BF832E07C
:101DB000012000F037F82EE0194B1B78013B052B72
:101DC00028D801A252F823F0E11D0008E91D0008FF
:101DD000F11D0008F91D0008011E0008091E000879
:101DE000022000F01FF816E0032000F01BF812E0BC
:101DF000012000F017F80EE0052000F013F80AE0CB
:101E0000002000F00FF806E0042000F00BF802E0DC
:101E100000BF00E000BF00BF80BD00BF3000002059
:101E20002200002080B584B000AF0346FB71FB792F
:101E3000092B00F2A38001A252F823F0651E0008CE
:101E4000811E00089D1E0008B91E0008D51E00084E
:101E5000F11E00080D1F0008291F0008451F00087B
:101E6000611F00082023BB6000233B730C237B739E
:101E70000123BB7307F108031846FFF7DFF97EE083
:101E80004023BB6000233B730C237B730123BB7394
:101E900007F108031846FFF7D1F970E08023BB6013
:101EA00000233B730C237B730123BB7307F10803EF
:101EB0001846FFF7C3F962E02023BB6000233B73A1
:101EC00008237B730123BB7307F108031846FFF750
:101ED000B5F954E04023BB6000233B7308237B73B8
:101EE0000123BB7307F108031846FFF7A7F946E083
:101EF0008023BB6000233B7308237B730123BB73E8
:101F000007F108031846FFF799F938E02023BB6072
:101F100000233B7310237B730123BB7307F108037A
:101F20001846FFF78BF92AE04023BB6000233B7380
:101F300010237B730123BB7307F108031846FFF7D7
:101F40007DF91CE08023BB6000233B7310237B736F
:101F50000123BB7307F108031846FFF76FF90EE082
:101F6000E023BB6000233B7310237B730123BB730F
:101F700007F108031846FFF761F900E000BF00BF52
:101F80001037BD4680BD00BF80B483B000AF0346AC
:101F9000FB800F4B1B88FA889A4213D0FB8840F6CF
:101FA000D862934202D940F6D863FB80094AFB8885
:101FB0009386084AFB881387064AFB889387044A5E
:101FC000FB88138000BF0C37BD4680BC704700BF44
:101FD00034040020002C014080B582B000AF0346DD
:101FE000FB710E4B1B78FA799A4213D00B4AFB799E
:101FF00013700A4B1B781946094B1B781846094A7F
:102000000B46DB005B1A134403441A78064B1A7024
:10201000FFF78AFD00BF0837BD4680BD30000020B5
:10202000E6030020E80300202200002080B500AF76
:102030000D48FEF7BBFD0346DAB20C4B1A700B4B92
:102040001B785B09DAB2094B1A70084B1B78002B1E
:1020500003D0064B1B78062B02D9044B01221A70C1
:10206000024B1B78184680BD000801403800002054
:1020700080B500AF094B1B781946094B1B781846F1
:10208000084A0B46DB005B1A134403441A78044BDE
:102090001A70FFF749FD00BF80BD00BF300000206F
:1020A000220000201400002080B584B000AF7860CA
:1020B0000C4A07F10803106818609188927999809A
:1020C0009A7107F10803184600F00EF807F10803AB
:1020D000013306221946786800F06CFD00BF103706
:1020E000BD4680BDD003002080B487B000AF7860CB
:1020F0007A6807F10C0310681860918892799980CA
:102100009A710123FB751AE00123BB7511E0FB7D79
:1021100007F11802134413F80C3CBA7D9A4205D11A
:10212000BB7D7A681344FA7D1A7005E0BB7D0133EC
:10213000BB75BB7D062BEAD9FB7D0133FB75FB7DAF
:10214000062BE1D900BF1C37BD4680BC704700BFDD
:1021500080B582B000AF0346FB71094AFB7913706A
:10216000FB79002B02D0FB79022B04D10920FFF769
:1021700059FEFFF77DFF00BF0837BD4680BD00BF99
:102180003100002080B584B000AF7860484B1B78E8
:10219000002B1CD0464B00221A704FF4E063BB8129
:1021A0000223BB731023FB7307F10C03194641484C
:1021B000FEF740FC4FF46043BB810223BB73102346
:1021C000FB7307F10C0319463B48FEF733FC7B68B1
:1021D00001331B78002B06D001224FF48071354863
:1021E000FEF7F0FC05E000224FF480713148FEF765
:1021F000E9FC7B6802331B78002B06D001224FF4E8
:1022000000512D48FEF7DEFC05E000224FF400519E
:102210002948FEF7D7FC7B6803331B78002B06D0D8
:1022200001224FF400712348FEF7CCFC05E00022A8
:102230004FF400711F48FEF7C5FC7B6804331B7820
:10224000002B06D001224FF480411B48FEF7BAFC58
:1022500005E000224FF480411748FEF7B3FC7B688D
:1022600005331B78002B06D001224FF48061114802
:10227000FEF7A8FC05E000224FF480610D48FEF750
:10228000A1FC7B6806331B78002B06D001224FF49B
:1022900000410948FEF796FC05E000224FF400419A
:1022A0000548FEF78FFC00BF1037BD4680BD00BF5C
:1022B0002300002000080140000C014080B586B0DA
:1022C00000AF01210820FEF77DFF01214FF480209F
:1022D000FEF796FF4FF48063BB821823FB75032340
:1022E000BB7507F1140319461F48FEF7A3FB4FF413
:1022F0000063BB820423FB7507F1140319461A48D7
:10230000FEF798FB4FF4E1337B6000233B81002311
:102310007B810023BB8100233B820C23FB813B1D7F
:1023200019461248FFF70AF827233B700F237B70EA
:102330000023BB700123FB703B46184600F06CF88D
:10234000012240F225510948FFF7D4F8012240F25A
:1023500026610648FFF7CEF801210448FFF7AAF8E6
:1023600000BF1837BD4680BD000C0140004800404A
:1023700080B582B000AF40F226611C48FFF724F917
:102380000346002B17D000F0A1FB0346002B0AD117
:1023900000F07CFB0346FB71FB799BB219461348A6
:1023A000FFF7F0F802E0124B00221A7040F22661AB
:1023B0000E48FFF763F940F225510C48FFF704F986
:1023C0000346002B0DD00948FFF7EEF80346FB71DA
:1023D000FB79184600F08EFB40F225510348FFF7C9
:1023E0004DF900BF0837BD4680BD00BF0048004022
:1023F0006501002080B483B000AF7860054A7B6837
:1024000043F0BF6343F40033D36000BF0C37BD46D5
:1024100080BC704700ED00E080B487B000AF78600A
:1024200000237B6100233B610F23FB607B68DB782B
:10243000002B3AD0274BDB68DB4303F4E0631B0A35
:102440007B617B69C3F104033B61FA687B6922FA13
:1024500003F3FB607B685B781A463B6902FA03F37F
:102460007B617B689B781A46FB6813407A6913434B
:102470007B617B691B017B61174A7B681B787969EB
:10248000C9B213440A4683F80023134A7B681B78B9
:102490005B09DBB218467B681B7803F01F03012140
:1024A00001FA03F342F820300FE00B497B681B78F8
:1024B0005B09DBB218467B681B7803F01F0301221F
:1024C0009A4000F1200341F8232000BF1C37BD468D
:1024D00080BC704700ED00E000E100E080B584B012
:1024E00000AF4B4B01221A704A4B01221A704A4B23
:1024F00001221A70494B01221A7001210520FEF7B2
:1025000061FE0F23BB812823FB7307F10C031946DF
:102510004348FEF78FFA03210020FEF76BFB4FF4D0
:102520004070FFF767FF06233B720123FB72002315
:102530007B720023BB7207F108031846FFF76CFF9C
:102540004FF44070FFF756FF07233B720123FB72E5
:1025500001237B720023BB7207F108031846FFF7C3
:102560005BFF4FF44070FFF745FF08233B720123E8
:10257000FB7202237B720023BB7207F1080318462B
:10258000FFF74AFF4FF44070FFF734FF09233B7217
:102590000123FB7203237B720023BB7207F1080344
:1025A0001846FFF739FF01233B6000233B710823E6
:1025B0007B710123BB713B461846FEF73FFE0223A9
:1025C0003B6000233B7108237B710123BB713B46B9
:1025D0001846FEF733FE04233B6000233B710823BB
:1025E0007B710123BB713B461846FEF727FE08238B
:1025F0003B6000233B7108237B710123BB713B4689
:102600001846FEF71BFE00BF1037BD4680BD00BF59
:102610006802002069020020640100205C010020A3
:102620000008014080B500AF0120FEF779FEFEF7FB
:1026300045FC00BF80BD00BF80B500AF0220FEF7A3
:102640006FFEFEF761FC00BF80BD00BF80B500AF2C
:102650000420FEF765FEFEF75DFC00BF80BD00BFF5
:1026600080B500AF0820FEF75BFEFEF759FC00BF07
:1026700080BD00BF80B500AF012201213448FEF7C4
:10268000A1FA002201213248FEF79CFA314B0122C7
:102690001A70314B1B781A46304B1B78013B9A421B
:1026A00006DA2D4B1B780133DAB22B4B1A704DE052
:1026B000012202212648FEF785FA00220221244841
:1026C000FEF780FA264B01221A70234B00221A7063
:1026D000244B1B781A46244B1B78013B9A4206DA9E
:1026E000204B1B780133DAB21E4B1A702EE0012208
:1026F00004211748FEF766FA002204211448FEF769
:1027000061FA1A4B01221A70164B00221A70184BEC
:102710001B781A46174B1B78013B9A4206DA144B7A
:102720001B780133DAB2124B1A700FE00122082134
:102730000748FEF747FA002208210548FEF742FA4B
:102740000D4B01221A700A4B00221A7000BF80BD87
:102750000008014068020020390000202400002009
:10276000690200203A0000202500002064010020BA
:102770003B000020260000205C01002080B400AF58
:10278000064B00221A70064B00221A70054B0022DD
:102790001A7000BFBD4680BC704700BF65010020B5
:1027A0003C0000203804002090B585B000AF0346FF
:1027B000FB710023FB60B3E000F0DCF90346002B63
:1027C00040F0AB805B4B1B78002B40F0A6805A4B4F
:1027D0001B78042B00F29E8001A252F823F000BF68
:1027E000F5270008132800082D2800086128000894
:1027F000E328000800F09EF903461A464F4B1A7072
:102800004E4B1B78652B40F087804B4B01221A7092
:1028100082E000F08FF903461A46494B1A70494B83
:1028200000221A70444B02221A7076E0454B1A7847
:10283000434B1B789A420FD2424B1B781C4600F048
:1028400079F903461A46404B1A553E4B1B78013323
:10285000DAB23C4B1A7060E0374B03221A705CE02E
:102860003A4B00221A70394B1B7883F06503DAB2B9
:10287000364B1A70354B1A78314B1B785340DAB20D
:10288000324B1A70324B00221A7010E0304B1B781A
:102890001A462D4B9A5C2D4B1B785340DAB22B4BCA
:1028A0001A702B4B1B780133DAB2294B1A70284B64
:1028B0001A78234B1B789A42E8D300F03BF9034681
:1028C0001A461E4B1A701D4B1A78204B1B789A42E1
:1028D00003D1194B04221A701FE0174B00221A7003
:1028E0001BE000F027F903461A46144B1A70134BED
:1028F0001B780D2B0AD10F4B01221A70104B1A783E
:10290000144B1A700C4B00221A7006E00A4B00227E
:102910001A7002E000BF00E000BFFB680133FB60FB
:10292000FA79FB689A423FF747AF00BF1437BD46BC
:1029300090BD00BF380400203C000020460000206D
:1029400047000020480000206801002049000020C6
:102950004A0000204C00002080B483B000AF094B37
:102960001B78002B05D0074B00221A700123FB7146
:1029700001E00023FB71FB7918460C37BD4680BC93
:10298000704700BF3804002080B584B000AF786085
:102990000B46FB700023FB73652000F057F8FB78B3
:1029A000184600F053F80023BB7309E0BB7B7A683C
:1029B00013441B78184600F049F8BB7B0133BB7306
:1029C000BA7BFB789A42F1D3FB7B83F06503FB7300
:1029D000FA7BFB785340FB730023BB7309E0BB7B9E
:1029E0007A6813441A78FB7B5340FB73BB7B01333B
:1029F000BB73BA7BFB789A42F1D3FB7B184600F09D
:102A000025F80D2000F022F800F004F800BF103780
:102A1000BD4680BD80B582B000AF0A4B1B78002B4D
:102A20000CD1084B01221A7000F030F80346FB71FC
:102A3000FB799BB219460448FEF7A4FD00BF083796
:102A4000BD4680BD650100200048004080B483B0D1
:102A500000AF0346FB710B4B1B885A1C91B2094A0D
:102A600011801946084AFB795354064B1B88B3F56D
:102A7000807F02D9034B00221A8000BF0C37BD466D
:102A800080BC7047400000204005002080B483B027
:102A900000AF0C4B1B885A1C91B20A4A11801A468F
:102AA000094B9B5CFB71074B1B88B3F5807F02D9F8
:102AB000044B00221A80FB7918460C37BD4680BCB7
:102AC000704700BF3E0000204005002080B400AFEA
:102AD000064B1A88064B1B889A420CBF0123002321
:102AE000DBB21846BD4680BC704700BF3E000020E8
:102AF0004000002080B483B000AF0346FB710B4B55
:102B00001B885A1C91B2094A11801946084AFB7960
:102B10005354064B1B88B3F5807F02D9034B002228
:102B20001A8000BF0C37BD4680BC704744000020AF
:102B30003C04002080B483B000AF0C4B1B885A1CAF
:102B400091B20A4A11801A46094B9B5CFB71074BF4
:102B50001B88B3F5807F02D9044B00221A80FB79D1
:102B600018460C37BD4680BC704700BF42000020AD
:102B70003C04002080B400AF064B1A88064B1B882B
:102B80009A420CBF01230023DBB21846BD4680BC2D
:102B9000704700BF420000204400002080B400AF16
:102BA000034B4AF6AA221A6000BFBD4680BC70479C
:102BB00000300040844641EA000313F0030349D18A
:102BC000403A23D30B6803604B6843608B68836093
:102BD000CB68C3600B6903614B6943618B69836197
:102BE000CB69C3610B6A03624B6A43628B6A83627F
:102BF000CB6AC3620B6B03634B6B43638B6B836367
:102C0000CB6BC36340304031403ADBD230320BD320
:102C10000B6803604B6843608B688360CB68C3605C
:102C200010301031103AF3D20C3205D351F8043B76
:102C300040F8043B043AF9D2043208D0D2071CBF52
:102C400011F8013B00F8013B01D30B88038060467B
:102C5000704700BF082A13D38B07B1D010F00303CD
:102C6000AED0C3F10403D21ADB071CBF11F8013B3D
:102C700000F8013BA4D331F8023B20F8023B9FE768
:102C8000043AD9D3013A11F8013B00F8013BF9D2DB
:102C90000B7803704B7843708B7883706046704775
:102CA00000000000010203040102030406070809F2
:102CB00002040608000203040506010006010203DF
:082CC000040501010A0A0A00E3
:0400000508000000EF
:00000001FF
